{
  "_format": "hh-sol-artifact-1",
  "contractName": "RoboNFT",
  "sourceName": "contracts/RoboNFT.sol",
  "abi": [
    {
      "inputs": [
        {
          "internalType": "address",
          "name": "roboRankAddress",
          "type": "address"
        },
        {
          "internalType": "string",
          "name": "_tokenUriPrefix",
          "type": "string"
        },
        {
          "internalType": "string",
          "name": "_name",
          "type": "string"
        },
        {
          "internalType": "string",
          "name": "_symbol",
          "type": "string"
        }
      ],
      "stateMutability": "nonpayable",
      "type": "constructor"
    },
    {
      "inputs": [
        {
          "internalType": "address",
          "name": "sender",
          "type": "address"
        },
        {
          "internalType": "uint256",
          "name": "tokenId",
          "type": "uint256"
        },
        {
          "internalType": "address",
          "name": "owner",
          "type": "address"
        }
      ],
      "name": "ERC721IncorrectOwner",
      "type": "error"
    },
    {
      "inputs": [
        {
          "internalType": "address",
          "name": "operator",
          "type": "address"
        },
        {
          "internalType": "uint256",
          "name": "tokenId",
          "type": "uint256"
        }
      ],
      "name": "ERC721InsufficientApproval",
      "type": "error"
    },
    {
      "inputs": [
        {
          "internalType": "address",
          "name": "approver",
          "type": "address"
        }
      ],
      "name": "ERC721InvalidApprover",
      "type": "error"
    },
    {
      "inputs": [
        {
          "internalType": "address",
          "name": "operator",
          "type": "address"
        }
      ],
      "name": "ERC721InvalidOperator",
      "type": "error"
    },
    {
      "inputs": [
        {
          "internalType": "address",
          "name": "owner",
          "type": "address"
        }
      ],
      "name": "ERC721InvalidOwner",
      "type": "error"
    },
    {
      "inputs": [
        {
          "internalType": "address",
          "name": "receiver",
          "type": "address"
        }
      ],
      "name": "ERC721InvalidReceiver",
      "type": "error"
    },
    {
      "inputs": [
        {
          "internalType": "address",
          "name": "sender",
          "type": "address"
        }
      ],
      "name": "ERC721InvalidSender",
      "type": "error"
    },
    {
      "inputs": [
        {
          "internalType": "uint256",
          "name": "tokenId",
          "type": "uint256"
        }
      ],
      "name": "ERC721NonexistentToken",
      "type": "error"
    },
    {
      "inputs": [
        {
          "internalType": "address",
          "name": "owner",
          "type": "address"
        }
      ],
      "name": "OwnableInvalidOwner",
      "type": "error"
    },
    {
      "inputs": [
        {
          "internalType": "address",
          "name": "account",
          "type": "address"
        }
      ],
      "name": "OwnableUnauthorizedAccount",
      "type": "error"
    },
    {
      "anonymous": false,
      "inputs": [
        {
          "indexed": true,
          "internalType": "address",
          "name": "owner",
          "type": "address"
        },
        {
          "indexed": true,
          "internalType": "address",
          "name": "approved",
          "type": "address"
        },
        {
          "indexed": true,
          "internalType": "uint256",
          "name": "tokenId",
          "type": "uint256"
        }
      ],
      "name": "Approval",
      "type": "event"
    },
    {
      "anonymous": false,
      "inputs": [
        {
          "indexed": true,
          "internalType": "address",
          "name": "owner",
          "type": "address"
        },
        {
          "indexed": true,
          "internalType": "address",
          "name": "operator",
          "type": "address"
        },
        {
          "indexed": false,
          "internalType": "bool",
          "name": "approved",
          "type": "bool"
        }
      ],
      "name": "ApprovalForAll",
      "type": "event"
    },
    {
      "anonymous": false,
      "inputs": [
        {
          "indexed": false,
          "internalType": "uint256",
          "name": "id",
          "type": "uint256"
        },
        {
          "indexed": false,
          "internalType": "string",
          "name": "name",
          "type": "string"
        },
        {
          "indexed": false,
          "internalType": "string",
          "name": "dna",
          "type": "string"
        },
        {
          "indexed": true,
          "internalType": "address",
          "name": "owner",
          "type": "address"
        }
      ],
      "name": "NewCommander",
      "type": "event"
    },
    {
      "anonymous": false,
      "inputs": [
        {
          "indexed": false,
          "internalType": "uint256",
          "name": "id",
          "type": "uint256"
        },
        {
          "indexed": false,
          "internalType": "string",
          "name": "robotDna",
          "type": "string"
        },
        {
          "indexed": true,
          "internalType": "address",
          "name": "owner",
          "type": "address"
        }
      ],
      "name": "NewRobot",
      "type": "event"
    },
    {
      "anonymous": false,
      "inputs": [
        {
          "indexed": true,
          "internalType": "address",
          "name": "previousOwner",
          "type": "address"
        },
        {
          "indexed": true,
          "internalType": "address",
          "name": "newOwner",
          "type": "address"
        }
      ],
      "name": "OwnershipTransferred",
      "type": "event"
    },
    {
      "anonymous": false,
      "inputs": [
        {
          "indexed": true,
          "internalType": "address",
          "name": "from",
          "type": "address"
        },
        {
          "indexed": true,
          "internalType": "address",
          "name": "to",
          "type": "address"
        },
        {
          "indexed": true,
          "internalType": "uint256",
          "name": "tokenId",
          "type": "uint256"
        }
      ],
      "name": "Transfer",
      "type": "event"
    },
    {
      "inputs": [
        {
          "internalType": "address",
          "name": "to",
          "type": "address"
        },
        {
          "internalType": "uint256",
          "name": "tokenId",
          "type": "uint256"
        }
      ],
      "name": "approve",
      "outputs": [],
      "stateMutability": "nonpayable",
      "type": "function"
    },
    {
      "inputs": [
        {
          "internalType": "address",
          "name": "owner",
          "type": "address"
        }
      ],
      "name": "balanceOf",
      "outputs": [
        {
          "internalType": "uint256",
          "name": "",
          "type": "uint256"
        }
      ],
      "stateMutability": "view",
      "type": "function"
    },
    {
      "inputs": [
        {
          "internalType": "uint256",
          "name": "",
          "type": "uint256"
        }
      ],
      "name": "commanders",
      "outputs": [
        {
          "internalType": "string",
          "name": "name",
          "type": "string"
        },
        {
          "internalType": "string",
          "name": "dna",
          "type": "string"
        }
      ],
      "stateMutability": "view",
      "type": "function"
    },
    {
      "inputs": [
        {
          "internalType": "string",
          "name": "name",
          "type": "string"
        }
      ],
      "name": "createCommander",
      "outputs": [],
      "stateMutability": "nonpayable",
      "type": "function"
    },
    {
      "inputs": [
        {
          "internalType": "string",
          "name": "robotDna",
          "type": "string"
        }
      ],
      "name": "createRobot",
      "outputs": [],
      "stateMutability": "nonpayable",
      "type": "function"
    },
    {
      "inputs": [
        {
          "internalType": "uint256",
          "name": "tokenId",
          "type": "uint256"
        }
      ],
      "name": "getApproved",
      "outputs": [
        {
          "internalType": "address",
          "name": "",
          "type": "address"
        }
      ],
      "stateMutability": "view",
      "type": "function"
    },
    {
      "inputs": [],
      "name": "getMyRobots",
      "outputs": [
        {
          "components": [
            {
              "internalType": "uint256",
              "name": "id",
              "type": "uint256"
            },
            {
              "internalType": "string",
              "name": "dna",
              "type": "string"
            }
          ],
          "internalType": "struct RoboNFT.QueryCatInfo[]",
          "name": "",
          "type": "tuple[]"
        }
      ],
      "stateMutability": "view",
      "type": "function"
    },
    {
      "inputs": [
        {
          "internalType": "string",
          "name": "",
          "type": "string"
        }
      ],
      "name": "ifRobotDnaExist",
      "outputs": [
        {
          "internalType": "bool",
          "name": "",
          "type": "bool"
        }
      ],
      "stateMutability": "view",
      "type": "function"
    },
    {
      "inputs": [
        {
          "internalType": "address",
          "name": "owner",
          "type": "address"
        },
        {
          "internalType": "address",
          "name": "operator",
          "type": "address"
        }
      ],
      "name": "isApprovedForAll",
      "outputs": [
        {
          "internalType": "bool",
          "name": "",
          "type": "bool"
        }
      ],
      "stateMutability": "view",
      "type": "function"
    },
    {
      "inputs": [
        {
          "internalType": "string",
          "name": "newDna",
          "type": "string"
        }
      ],
      "name": "modifyCommanderDna",
      "outputs": [],
      "stateMutability": "nonpayable",
      "type": "function"
    },
    {
      "inputs": [
        {
          "internalType": "string",
          "name": "newName",
          "type": "string"
        }
      ],
      "name": "modifyCommanderName",
      "outputs": [],
      "stateMutability": "nonpayable",
      "type": "function"
    },
    {
      "inputs": [],
      "name": "name",
      "outputs": [
        {
          "internalType": "string",
          "name": "",
          "type": "string"
        }
      ],
      "stateMutability": "view",
      "type": "function"
    },
    {
      "inputs": [],
      "name": "owner",
      "outputs": [
        {
          "internalType": "address",
          "name": "",
          "type": "address"
        }
      ],
      "stateMutability": "view",
      "type": "function"
    },
    {
      "inputs": [
        {
          "internalType": "uint256",
          "name": "tokenId",
          "type": "uint256"
        }
      ],
      "name": "ownerOf",
      "outputs": [
        {
          "internalType": "address",
          "name": "",
          "type": "address"
        }
      ],
      "stateMutability": "view",
      "type": "function"
    },
    {
      "inputs": [
        {
          "internalType": "address",
          "name": "",
          "type": "address"
        }
      ],
      "name": "ownerToCommander",
      "outputs": [
        {
          "internalType": "uint256",
          "name": "",
          "type": "uint256"
        }
      ],
      "stateMutability": "view",
      "type": "function"
    },
    {
      "inputs": [],
      "name": "renounceOwnership",
      "outputs": [],
      "stateMutability": "nonpayable",
      "type": "function"
    },
    {
      "inputs": [
        {
          "internalType": "uint256",
          "name": "",
          "type": "uint256"
        }
      ],
      "name": "robots",
      "outputs": [
        {
          "internalType": "string",
          "name": "dna",
          "type": "string"
        }
      ],
      "stateMutability": "view",
      "type": "function"
    },
    {
      "inputs": [
        {
          "internalType": "address",
          "name": "from",
          "type": "address"
        },
        {
          "internalType": "address",
          "name": "to",
          "type": "address"
        },
        {
          "internalType": "uint256",
          "name": "tokenId",
          "type": "uint256"
        }
      ],
      "name": "safeTransferFrom",
      "outputs": [],
      "stateMutability": "nonpayable",
      "type": "function"
    },
    {
      "inputs": [
        {
          "internalType": "address",
          "name": "from",
          "type": "address"
        },
        {
          "internalType": "address",
          "name": "to",
          "type": "address"
        },
        {
          "internalType": "uint256",
          "name": "tokenId",
          "type": "uint256"
        },
        {
          "internalType": "bytes",
          "name": "data",
          "type": "bytes"
        }
      ],
      "name": "safeTransferFrom",
      "outputs": [],
      "stateMutability": "nonpayable",
      "type": "function"
    },
    {
      "inputs": [
        {
          "internalType": "address",
          "name": "operator",
          "type": "address"
        },
        {
          "internalType": "bool",
          "name": "approved",
          "type": "bool"
        }
      ],
      "name": "setApprovalForAll",
      "outputs": [],
      "stateMutability": "nonpayable",
      "type": "function"
    },
    {
      "inputs": [
        {
          "internalType": "string",
          "name": "_newPrefix",
          "type": "string"
        }
      ],
      "name": "setTokenUriPrefix",
      "outputs": [],
      "stateMutability": "nonpayable",
      "type": "function"
    },
    {
      "inputs": [],
      "name": "supplyLeft",
      "outputs": [
        {
          "internalType": "uint256",
          "name": "",
          "type": "uint256"
        }
      ],
      "stateMutability": "view",
      "type": "function"
    },
    {
      "inputs": [
        {
          "internalType": "bytes4",
          "name": "interfaceId",
          "type": "bytes4"
        }
      ],
      "name": "supportsInterface",
      "outputs": [
        {
          "internalType": "bool",
          "name": "",
          "type": "bool"
        }
      ],
      "stateMutability": "view",
      "type": "function"
    },
    {
      "inputs": [],
      "name": "symbol",
      "outputs": [
        {
          "internalType": "string",
          "name": "",
          "type": "string"
        }
      ],
      "stateMutability": "view",
      "type": "function"
    },
    {
      "inputs": [
        {
          "internalType": "uint256",
          "name": "_robotId",
          "type": "uint256"
        }
      ],
      "name": "tokenURI",
      "outputs": [
        {
          "internalType": "string",
          "name": "",
          "type": "string"
        }
      ],
      "stateMutability": "view",
      "type": "function"
    },
    {
      "inputs": [],
      "name": "totalSupply",
      "outputs": [
        {
          "internalType": "uint256",
          "name": "",
          "type": "uint256"
        }
      ],
      "stateMutability": "view",
      "type": "function"
    },
    {
      "inputs": [
        {
          "internalType": "address",
          "name": "from",
          "type": "address"
        },
        {
          "internalType": "address",
          "name": "to",
          "type": "address"
        },
        {
          "internalType": "uint256",
          "name": "tokenId",
          "type": "uint256"
        }
      ],
      "name": "transferFrom",
      "outputs": [],
      "stateMutability": "nonpayable",
      "type": "function"
    },
    {
      "inputs": [
        {
          "internalType": "address",
          "name": "newOwner",
          "type": "address"
        }
      ],
      "name": "transferOwnership",
      "outputs": [],
      "stateMutability": "nonpayable",
      "type": "function"
    }
  ],
  "bytecode": "0x6080604052620f42406008553480156200001857600080fd5b50604051620042093803806200420983398181016040528101906200003e9190620004e3565b818133600073ffffffffffffffffffffffffffffffffffffffff168173ffffffffffffffffffffffffffffffffffffffff1603620000b65760006040517f1e4fbdf7000000000000000000000000000000000000000000000000000000008152600401620000ad9190620005c3565b60405180910390fd5b620000c7816200022760201b60201c565b508160019081620000d991906200082b565b508060029081620000eb91906200082b565b505050600a60405180604001604052806040518060400160405280600481526020017f696e69740000000000000000000000000000000000000000000000000000000081525081526020016040518060400160405280600481526020017f696e69740000000000000000000000000000000000000000000000000000000081525081525090806001815401808255809150506001900390600052602060002090600202016000909190919091506000820151816000019081620001af91906200082b565b506020820151816001019081620001c791906200082b565b50505083600760006101000a81548173ffffffffffffffffffffffffffffffffffffffff021916908373ffffffffffffffffffffffffffffffffffffffff16021790555082600990816200021c91906200082b565b505050505062000912565b60008060009054906101000a900473ffffffffffffffffffffffffffffffffffffffff169050816000806101000a81548173ffffffffffffffffffffffffffffffffffffffff021916908373ffffffffffffffffffffffffffffffffffffffff1602179055508173ffffffffffffffffffffffffffffffffffffffff168173ffffffffffffffffffffffffffffffffffffffff167f8be0079c531659141344cd1fd0a4f28419497f9722a3daafe3b4186f6b6457e060405160405180910390a35050565b6000604051905090565b600080fd5b600080fd5b600073ffffffffffffffffffffffffffffffffffffffff82169050919050565b60006200032c82620002ff565b9050919050565b6200033e816200031f565b81146200034a57600080fd5b50565b6000815190506200035e8162000333565b92915050565b600080fd5b600080fd5b6000601f19601f8301169050919050565b7f4e487b7100000000000000000000000000000000000000000000000000000000600052604160045260246000fd5b620003b9826200036e565b810181811067ffffffffffffffff82111715620003db57620003da6200037f565b5b80604052505050565b6000620003f0620002eb565b9050620003fe8282620003ae565b919050565b600067ffffffffffffffff8211156200042157620004206200037f565b5b6200042c826200036e565b9050602081019050919050565b60005b83811015620004595780820151818401526020810190506200043c565b60008484015250505050565b60006200047c620004768462000403565b620003e4565b9050828152602081018484840111156200049b576200049a62000369565b5b620004a884828562000439565b509392505050565b600082601f830112620004c857620004c762000364565b5b8151620004da84826020860162000465565b91505092915050565b600080600080608085870312156200050057620004ff620002f5565b5b600062000510878288016200034d565b945050602085015167ffffffffffffffff811115620005345762000533620002fa565b5b6200054287828801620004b0565b935050604085015167ffffffffffffffff811115620005665762000565620002fa565b5b6200057487828801620004b0565b925050606085015167ffffffffffffffff811115620005985762000597620002fa565b5b620005a687828801620004b0565b91505092959194509250565b620005bd816200031f565b82525050565b6000602082019050620005da6000830184620005b2565b92915050565b600081519050919050565b7f4e487b7100000000000000000000000000000000000000000000000000000000600052602260045260246000fd5b600060028204905060018216806200063357607f821691505b602082108103620006495762000648620005eb565b5b50919050565b60008190508160005260206000209050919050565b60006020601f8301049050919050565b600082821b905092915050565b600060088302620006b37fffffffffffffffffffffffffffffffffffffffffffffffffffffffffffffffff8262000674565b620006bf868362000674565b95508019841693508086168417925050509392505050565b6000819050919050565b6000819050919050565b60006200070c620007066200070084620006d7565b620006e1565b620006d7565b9050919050565b6000819050919050565b6200072883620006eb565b62000740620007378262000713565b84845462000681565b825550505050565b600090565b6200075762000748565b620007648184846200071d565b505050565b5b818110156200078c57620007806000826200074d565b6001810190506200076a565b5050565b601f821115620007db57620007a5816200064f565b620007b08462000664565b81016020851015620007c0578190505b620007d8620007cf8562000664565b83018262000769565b50505b505050565b600082821c905092915050565b60006200080060001984600802620007e0565b1980831691505092915050565b60006200081b8383620007ed565b9150826002028217905092915050565b6200083682620005e0565b67ffffffffffffffff8111156200085257620008516200037f565b5b6200085e82546200061a565b6200086b82828562000790565b600060209050601f831160018114620008a357600084156200088e578287015190505b6200089a85826200080d565b8655506200090a565b601f198416620008b3866200064f565b60005b82811015620008dd57848901518255600182019150602085019450602081019050620008b6565b86831015620008fd5784890151620008f9601f891682620007ed565b8355505b6001600288020188555050505b505050505050565b6138e780620009226000396000f3fe608060405234801561001057600080fd5b50600436106101c45760003560e01c80637c4213de116100f9578063c215d5fe11610097578063ded6887b11610071578063ded6887b14610514578063e985e9c514610532578063f2fde38b14610562578063fdcf9d071461057e576101c4565b8063c215d5fe14610498578063c87b56dd146104b4578063d58b589c146104e4576101c4565b80639949460c116100d35780639949460c14610414578063a03937c514610430578063a22cb46514610460578063b88d4fde1461047c576101c4565b80637c4213de146103bc5780638da5cb5b146103d857806395d89b41146103f6576101c4565b8063492d8b3d116101665780636352211e116101405780636352211e146103225780636aa438dc1461035257806370a0823114610382578063715018a6146103b2576101c4565b8063492d8b3d146102b95780634e9493f7146102ea578063532e484914610306576101c4565b8063095ea7b3116101a2578063095ea7b31461024757806318160ddd1461026357806323b872dd1461028157806342842e0e1461029d576101c4565b806301ffc9a7146101c957806306fdde03146101f9578063081812fc14610217575b600080fd5b6101e360048036038101906101de919061264c565b61059c565b6040516101f09190612694565b60405180910390f35b61020161067e565b60405161020e919061273f565b60405180910390f35b610231600480360381019061022c9190612797565b610710565b60405161023e9190612805565b60405180910390f35b610261600480360381019061025c919061284c565b61072c565b005b61026b610742565b604051610278919061289b565b60405180910390f35b61029b600480360381019061029691906128b6565b61075a565b005b6102b760048036038101906102b291906128b6565b61085c565b005b6102d360048036038101906102ce9190612797565b61087c565b6040516102e1929190612909565b60405180910390f35b61030460048036038101906102ff91906129a5565b6109c0565b005b610320600480360381019061031b9190612b22565b610d8f565b005b61033c60048036038101906103379190612797565b610daa565b6040516103499190612805565b60405180910390f35b61036c60048036038101906103679190612b6b565b610dbc565b604051610379919061289b565b60405180910390f35b61039c60048036038101906103979190612b6b565b610dd4565b6040516103a9919061289b565b60405180910390f35b6103ba610e8e565b005b6103d660048036038101906103d191906129a5565b610ea2565b005b6103e0610f1a565b6040516103ed9190612805565b60405180910390f35b6103fe610f43565b60405161040b919061273f565b60405180910390f35b61042e600480360381019061042991906129a5565b610fd5565b005b61044a60048036038101906104459190612797565b61104d565b604051610457919061273f565b60405180910390f35b61047a60048036038101906104759190612bc4565b6110ff565b005b61049660048036038101906104919190612ca5565b611115565b005b6104b260048036038101906104ad9190612b22565b611132565b005b6104ce60048036038101906104c99190612797565b61139f565b6040516104db919061273f565b60405180910390f35b6104fe60048036038101906104f99190612b22565b6113eb565b60405161050b9190612694565b60405180910390f35b61051c611421565b6040516105299190612e80565b60405180910390f35b61054c60048036038101906105479190612ea2565b6115f7565b6040516105599190612694565b60405180910390f35b61057c60048036038101906105779190612b6b565b61168b565b005b610586611711565b604051610593919061289b565b60405180910390f35b60007f80ac58cd000000000000000000000000000000000000000000000000000000007bffffffffffffffffffffffffffffffffffffffffffffffffffffffff1916827bffffffffffffffffffffffffffffffffffffffffffffffffffffffff1916148061066757507f5b5e139f000000000000000000000000000000000000000000000000000000007bffffffffffffffffffffffffffffffffffffffffffffffffffffffff1916827bffffffffffffffffffffffffffffffffffffffffffffffffffffffff1916145b80610677575061067682611717565b5b9050919050565b60606001805461068d90612f11565b80601f01602080910402602001604051908101604052809291908181526020018280546106b990612f11565b80156107065780601f106106db57610100808354040283529160200191610706565b820191906000526020600020905b8154815290600101906020018083116106e957829003601f168201915b5050505050905090565b600061071b82611781565b5061072582611809565b9050919050565b61073e8282610739611846565b61184e565b5050565b6000600854620f42406107559190612f71565b905090565b600073ffffffffffffffffffffffffffffffffffffffff168273ffffffffffffffffffffffffffffffffffffffff16036107cc5760006040517f64a0ae920000000000000000000000000000000000000000000000000000000081526004016107c39190612805565b60405180910390fd5b60006107e083836107db611846565b611860565b90508373ffffffffffffffffffffffffffffffffffffffff168173ffffffffffffffffffffffffffffffffffffffff1614610856578382826040517f64283d7b00000000000000000000000000000000000000000000000000000000815260040161084d93929190612fa5565b60405180910390fd5b50505050565b61087783838360405180602001604052806000815250611115565b505050565b600a818154811061088c57600080fd5b90600052602060002090600202016000915090508060000180546108af90612f11565b80601f01602080910402602001604051908101604052809291908181526020018280546108db90612f11565b80156109285780601f106108fd57610100808354040283529160200191610928565b820191906000526020600020905b81548152906001019060200180831161090b57829003601f168201915b50505050509080600101805461093d90612f11565b80601f016020809104026020016040519081016040528092919081815260200182805461096990612f11565b80156109b65780601f1061098b576101008083540402835291602001916109b6565b820191906000526020600020905b81548152906001019060200180831161099957829003601f168201915b5050505050905082565b6000600c60003373ffffffffffffffffffffffffffffffffffffffff1673ffffffffffffffffffffffffffffffffffffffff1681526020019081526020016000205414610a42576040517f08c379a0000000000000000000000000000000000000000000000000000000008152600401610a3990613028565b60405180910390fd5b6000610a4d42611a7a565b9050600a604051806040016040528085858080601f016020809104026020016040519081016040528093929190818152602001838380828437600081840152601f19601f8201169050808301925050505050505081526020018381525090806001815401808255809150506001900390600052602060002090600202016000909190919091506000820151816000019081610ae891906131f4565b506020820151816001019081610afe91906131f4565b50505060006001600a80549050610b159190612f71565b905080600c60003373ffffffffffffffffffffffffffffffffffffffff1673ffffffffffffffffffffffffffffffffffffffff168152602001908152602001600020819055506103e8600760009054906101000a900473ffffffffffffffffffffffffffffffffffffffff1673ffffffffffffffffffffffffffffffffffffffff166328657aa56040518163ffffffff1660e01b8152600401602060405180830381865afa158015610bcb573d6000803e3d6000fd5b505050506040513d601f19601f82011682018060405250810190610bef91906132db565b10610d3557600760009054906101000a900473ffffffffffffffffffffffffffffffffffffffff1673ffffffffffffffffffffffffffffffffffffffff16637308de07336040518263ffffffff1660e01b8152600401610c4f9190612805565b602060405180830381865afa158015610c6c573d6000803e3d6000fd5b505050506040513d601f19601f82011682018060405250810190610c90919061331d565b610d3457600760009054906101000a900473ffffffffffffffffffffffffffffffffffffffff1673ffffffffffffffffffffffffffffffffffffffff1663311e1106336040518263ffffffff1660e01b8152600401610cef9190612805565b6020604051808303816000875af1158015610d0e573d6000803e3d6000fd5b505050506040513d601f19601f82011682018060405250810190610d32919061331d565b505b5b3373ffffffffffffffffffffffffffffffffffffffff167f0ba589754bdc7c1e308a8ce3362a7b42600571fdd695534edd1e0182e187149f82868686604051610d819493929190613377565b60405180910390a250505050565b610d97611b48565b8060099081610da691906131f4565b5050565b6000610db582611781565b9050919050565b600c6020528060005260406000206000915090505481565b60008073ffffffffffffffffffffffffffffffffffffffff168273ffffffffffffffffffffffffffffffffffffffff1603610e475760006040517f89c62b64000000000000000000000000000000000000000000000000000000008152600401610e3e9190612805565b60405180910390fd5b600460008373ffffffffffffffffffffffffffffffffffffffff1673ffffffffffffffffffffffffffffffffffffffff168152602001908152602001600020549050919050565b610e96611b48565b610ea06000611bcf565b565b8181600a600c60003373ffffffffffffffffffffffffffffffffffffffff1673ffffffffffffffffffffffffffffffffffffffff1681526020019081526020016000205481548110610ef757610ef66133be565b5b90600052602060002090600202016001019182610f159291906133f8565b505050565b60008060009054906101000a900473ffffffffffffffffffffffffffffffffffffffff16905090565b606060028054610f5290612f11565b80601f0160208091040260200160405190810160405280929190818152602001828054610f7e90612f11565b8015610fcb5780601f10610fa057610100808354040283529160200191610fcb565b820191906000526020600020905b815481529060010190602001808311610fae57829003601f168201915b5050505050905090565b8181600a600c60003373ffffffffffffffffffffffffffffffffffffffff1673ffffffffffffffffffffffffffffffffffffffff168152602001908152602001600020548154811061102a576110296133be565b5b906000526020600020906002020160000191826110489291906133f8565b505050565b600b818154811061105d57600080fd5b9060005260206000200160009150905080600001805461107c90612f11565b80601f01602080910402602001604051908101604052809291908181526020018280546110a890612f11565b80156110f55780601f106110ca576101008083540402835291602001916110f5565b820191906000526020600020905b8154815290600101906020018083116110d857829003601f168201915b5050505050905081565b61111161110a611846565b8383611c93565b5050565b61112084848461075a565b61112c84848484611e02565b50505050565b60016008541015611178576040517f08c379a000000000000000000000000000000000000000000000000000000000815260040161116f90613514565b60405180910390fd5b60001515600d8260405161118c9190613570565b908152602001604051809103902060009054906101000a900460ff161515146111ea576040517f08c379a00000000000000000000000000000000000000000000000000000000081526004016111e1906135d3565b60405180910390fd5b600b60405180602001604052808381525090806001815401808255809150506001900390600052602060002001600090919091909150600082015181600001908161123591906131f4565b50505060006001600b8054905061124c9190612f71565b90506001600d836040516112609190613570565b908152602001604051809103902060006101000a81548160ff02191690831515021790555061128f3382611fb9565b6001600860008282546112a29190612f71565b92505081905550600760009054906101000a900473ffffffffffffffffffffffffffffffffffffffff1673ffffffffffffffffffffffffffffffffffffffff16630ce9bfaf6064336040518363ffffffff1660e01b815260040161130792919061362e565b6020604051808303816000875af1158015611326573d6000803e3d6000fd5b505050506040513d601f19601f8201168201806040525081019061134a919061331d565b503373ffffffffffffffffffffffffffffffffffffffff167f935f81763e85eb8a98d2288004d051197caff5604156d53e66049c6fd911ae5f8284604051611393929190613657565b60405180910390a25050565b60606009600b83815481106113b7576113b66133be565b5b906000526020600020016000016040516020016113d592919061370a565b6040516020818303038152906040529050919050565b600d818051602081018201805184825260208301602085012081835280955050505050506000915054906101000a900460ff1681565b6060600061142e33610dd4565b905060008167ffffffffffffffff81111561144c5761144b6129f7565b5b60405190808252806020026020018201604052801561148557816020015b6114726125c6565b81526020019060019003908161146a5790505b5090506000821161149a5780925050506115f4565b6000805b600b805490508110156115ec573373ffffffffffffffffffffffffffffffffffffffff166114cb82611fd7565b73ffffffffffffffffffffffffffffffffffffffff16036115d9576040518060400160405280828152602001600b838154811061150b5761150a6133be565b5b90600052602060002001600001805461152390612f11565b80601f016020809104026020016040519081016040528092919081815260200182805461154f90612f11565b801561159c5780601f106115715761010080835404028352916020019161159c565b820191906000526020600020905b81548152906001019060200180831161157f57829003601f168201915b50505050508152508383815181106115b7576115b66133be565b5b602002602001018190525081806115cd9061372e565b925050838210156115ec575b80806115e49061372e565b91505061149e565b508193505050505b90565b6000600660008473ffffffffffffffffffffffffffffffffffffffff1673ffffffffffffffffffffffffffffffffffffffff16815260200190815260200160002060008373ffffffffffffffffffffffffffffffffffffffff1673ffffffffffffffffffffffffffffffffffffffff16815260200190815260200160002060009054906101000a900460ff16905092915050565b611693611b48565b600073ffffffffffffffffffffffffffffffffffffffff168173ffffffffffffffffffffffffffffffffffffffff16036117055760006040517f1e4fbdf70000000000000000000000000000000000000000000000000000000081526004016116fc9190612805565b60405180910390fd5b61170e81611bcf565b50565b60085481565b60007f01ffc9a7000000000000000000000000000000000000000000000000000000007bffffffffffffffffffffffffffffffffffffffffffffffffffffffff1916827bffffffffffffffffffffffffffffffffffffffffffffffffffffffff1916149050919050565b60008061178d83611fd7565b9050600073ffffffffffffffffffffffffffffffffffffffff168173ffffffffffffffffffffffffffffffffffffffff160361180057826040517f7e2732890000000000000000000000000000000000000000000000000000000081526004016117f7919061289b565b60405180910390fd5b80915050919050565b60006005600083815260200190815260200160002060009054906101000a900473ffffffffffffffffffffffffffffffffffffffff169050919050565b600033905090565b61185b8383836001612014565b505050565b60008061186c84611fd7565b9050600073ffffffffffffffffffffffffffffffffffffffff168373ffffffffffffffffffffffffffffffffffffffff16146118ae576118ad8184866121d9565b5b600073ffffffffffffffffffffffffffffffffffffffff168173ffffffffffffffffffffffffffffffffffffffff161461193f576118f0600085600080612014565b6001600460008373ffffffffffffffffffffffffffffffffffffffff1673ffffffffffffffffffffffffffffffffffffffff168152602001908152602001600020600082825403925050819055505b600073ffffffffffffffffffffffffffffffffffffffff168573ffffffffffffffffffffffffffffffffffffffff16146119c2576001600460008773ffffffffffffffffffffffffffffffffffffffff1673ffffffffffffffffffffffffffffffffffffffff168152602001908152602001600020600082825401925050819055505b846003600086815260200190815260200160002060006101000a81548173ffffffffffffffffffffffffffffffffffffffff021916908373ffffffffffffffffffffffffffffffffffffffff160217905550838573ffffffffffffffffffffffffffffffffffffffff168273ffffffffffffffffffffffffffffffffffffffff167fddf252ad1be2c89b69c2b068fc378daa952ba7f163c4a11628f55a4df523b3ef60405160405180910390a4809150509392505050565b606060006001611a898461229d565b01905060008167ffffffffffffffff811115611aa857611aa76129f7565b5b6040519080825280601f01601f191660200182016040528015611ada5781602001600182028036833780820191505090505b509050600082602001820190505b600115611b3d578080600190039150507f3031323334353637383961626364656600000000000000000000000000000000600a86061a8153600a8581611b3157611b30613776565b5b04945060008503611ae8575b819350505050919050565b611b50611846565b73ffffffffffffffffffffffffffffffffffffffff16611b6e610f1a565b73ffffffffffffffffffffffffffffffffffffffff1614611bcd57611b91611846565b6040517f118cdaa7000000000000000000000000000000000000000000000000000000008152600401611bc49190612805565b60405180910390fd5b565b60008060009054906101000a900473ffffffffffffffffffffffffffffffffffffffff169050816000806101000a81548173ffffffffffffffffffffffffffffffffffffffff021916908373ffffffffffffffffffffffffffffffffffffffff1602179055508173ffffffffffffffffffffffffffffffffffffffff168173ffffffffffffffffffffffffffffffffffffffff167f8be0079c531659141344cd1fd0a4f28419497f9722a3daafe3b4186f6b6457e060405160405180910390a35050565b600073ffffffffffffffffffffffffffffffffffffffff168273ffffffffffffffffffffffffffffffffffffffff1603611d0457816040517f5b08ba18000000000000000000000000000000000000000000000000000000008152600401611cfb9190612805565b60405180910390fd5b80600660008573ffffffffffffffffffffffffffffffffffffffff1673ffffffffffffffffffffffffffffffffffffffff16815260200190815260200160002060008473ffffffffffffffffffffffffffffffffffffffff1673ffffffffffffffffffffffffffffffffffffffff16815260200190815260200160002060006101000a81548160ff0219169083151502179055508173ffffffffffffffffffffffffffffffffffffffff168373ffffffffffffffffffffffffffffffffffffffff167f17307eab39ab6107e8899845ad3d59bd9653f200f220920489ca2b5937696c3183604051611df59190612694565b60405180910390a3505050565b60008373ffffffffffffffffffffffffffffffffffffffff163b1115611fb3578273ffffffffffffffffffffffffffffffffffffffff1663150b7a02611e46611846565b8685856040518563ffffffff1660e01b8152600401611e6894939291906137fa565b6020604051808303816000875af1925050508015611ea457506040513d601f19601f82011682018060405250810190611ea1919061385b565b60015b611f28573d8060008114611ed4576040519150601f19603f3d011682016040523d82523d6000602084013e611ed9565b606091505b506000815103611f2057836040517f64a0ae92000000000000000000000000000000000000000000000000000000008152600401611f179190612805565b60405180910390fd5b805181602001fd5b63150b7a0260e01b7bffffffffffffffffffffffffffffffffffffffffffffffffffffffff1916817bffffffffffffffffffffffffffffffffffffffffffffffffffffffff191614611fb157836040517f64a0ae92000000000000000000000000000000000000000000000000000000008152600401611fa89190612805565b60405180910390fd5b505b50505050565b611fd38282604051806020016040528060008152506123f0565b5050565b60006003600083815260200190815260200160002060009054906101000a900473ffffffffffffffffffffffffffffffffffffffff169050919050565b808061204d5750600073ffffffffffffffffffffffffffffffffffffffff168273ffffffffffffffffffffffffffffffffffffffff1614155b1561218157600061205d84611781565b9050600073ffffffffffffffffffffffffffffffffffffffff168373ffffffffffffffffffffffffffffffffffffffff16141580156120c857508273ffffffffffffffffffffffffffffffffffffffff168173ffffffffffffffffffffffffffffffffffffffff1614155b80156120db57506120d981846115f7565b155b1561211d57826040517fa9fbf51f0000000000000000000000000000000000000000000000000000000081526004016121149190612805565b60405180910390fd5b811561217f57838573ffffffffffffffffffffffffffffffffffffffff168273ffffffffffffffffffffffffffffffffffffffff167f8c5be1e5ebec7d5bd14f71427d1e84f3dd0314c0f7b2291e5b200ac8c7c3b92560405160405180910390a45b505b836005600085815260200190815260200160002060006101000a81548173ffffffffffffffffffffffffffffffffffffffff021916908373ffffffffffffffffffffffffffffffffffffffff16021790555050505050565b6121e483838361240c565b61229857600073ffffffffffffffffffffffffffffffffffffffff168373ffffffffffffffffffffffffffffffffffffffff160361225957806040517f7e273289000000000000000000000000000000000000000000000000000000008152600401612250919061289b565b60405180910390fd5b81816040517f177e802f00000000000000000000000000000000000000000000000000000000815260040161228f929190613888565b60405180910390fd5b505050565b600080600090507a184f03e93ff9f4daa797ed6e38ed64bf6a1f01000000000000000083106122fb577a184f03e93ff9f4daa797ed6e38ed64bf6a1f01000000000000000083816122f1576122f0613776565b5b0492506040810190505b6d04ee2d6d415b85acef81000000008310612338576d04ee2d6d415b85acef8100000000838161232e5761232d613776565b5b0492506020810190505b662386f26fc10000831061236757662386f26fc10000838161235d5761235c613776565b5b0492506010810190505b6305f5e1008310612390576305f5e100838161238657612385613776565b5b0492506008810190505b61271083106123b55761271083816123ab576123aa613776565b5b0492506004810190505b606483106123d857606483816123ce576123cd613776565b5b0492506002810190505b600a83106123e7576001810190505b80915050919050565b6123fa83836124cd565b6124076000848484611e02565b505050565b60008073ffffffffffffffffffffffffffffffffffffffff168373ffffffffffffffffffffffffffffffffffffffff16141580156124c457508273ffffffffffffffffffffffffffffffffffffffff168473ffffffffffffffffffffffffffffffffffffffff161480612485575061248484846115f7565b5b806124c357508273ffffffffffffffffffffffffffffffffffffffff166124ab83611809565b73ffffffffffffffffffffffffffffffffffffffff16145b5b90509392505050565b600073ffffffffffffffffffffffffffffffffffffffff168273ffffffffffffffffffffffffffffffffffffffff160361253f5760006040517f64a0ae920000000000000000000000000000000000000000000000000000000081526004016125369190612805565b60405180910390fd5b600061254d83836000611860565b9050600073ffffffffffffffffffffffffffffffffffffffff168173ffffffffffffffffffffffffffffffffffffffff16146125c15760006040517f73c6ac6e0000000000000000000000000000000000000000000000000000000081526004016125b89190612805565b60405180910390fd5b505050565b604051806040016040528060008152602001606081525090565b6000604051905090565b600080fd5b600080fd5b60007fffffffff0000000000000000000000000000000000000000000000000000000082169050919050565b612629816125f4565b811461263457600080fd5b50565b60008135905061264681612620565b92915050565b600060208284031215612662576126616125ea565b5b600061267084828501612637565b91505092915050565b60008115159050919050565b61268e81612679565b82525050565b60006020820190506126a96000830184612685565b92915050565b600081519050919050565b600082825260208201905092915050565b60005b838110156126e95780820151818401526020810190506126ce565b60008484015250505050565b6000601f19601f8301169050919050565b6000612711826126af565b61271b81856126ba565b935061272b8185602086016126cb565b612734816126f5565b840191505092915050565b600060208201905081810360008301526127598184612706565b905092915050565b6000819050919050565b61277481612761565b811461277f57600080fd5b50565b6000813590506127918161276b565b92915050565b6000602082840312156127ad576127ac6125ea565b5b60006127bb84828501612782565b91505092915050565b600073ffffffffffffffffffffffffffffffffffffffff82169050919050565b60006127ef826127c4565b9050919050565b6127ff816127e4565b82525050565b600060208201905061281a60008301846127f6565b92915050565b612829816127e4565b811461283457600080fd5b50565b60008135905061284681612820565b92915050565b60008060408385031215612863576128626125ea565b5b600061287185828601612837565b925050602061288285828601612782565b9150509250929050565b61289581612761565b82525050565b60006020820190506128b0600083018461288c565b92915050565b6000806000606084860312156128cf576128ce6125ea565b5b60006128dd86828701612837565b93505060206128ee86828701612837565b92505060406128ff86828701612782565b9150509250925092565b600060408201905081810360008301526129238185612706565b905081810360208301526129378184612706565b90509392505050565b600080fd5b600080fd5b600080fd5b60008083601f84011261296557612964612940565b5b8235905067ffffffffffffffff81111561298257612981612945565b5b60208301915083600182028301111561299e5761299d61294a565b5b9250929050565b600080602083850312156129bc576129bb6125ea565b5b600083013567ffffffffffffffff8111156129da576129d96125ef565b5b6129e68582860161294f565b92509250509250929050565b600080fd5b7f4e487b7100000000000000000000000000000000000000000000000000000000600052604160045260246000fd5b612a2f826126f5565b810181811067ffffffffffffffff82111715612a4e57612a4d6129f7565b5b80604052505050565b6000612a616125e0565b9050612a6d8282612a26565b919050565b600067ffffffffffffffff821115612a8d57612a8c6129f7565b5b612a96826126f5565b9050602081019050919050565b82818337600083830152505050565b6000612ac5612ac084612a72565b612a57565b905082815260208101848484011115612ae157612ae06129f2565b5b612aec848285612aa3565b509392505050565b600082601f830112612b0957612b08612940565b5b8135612b19848260208601612ab2565b91505092915050565b600060208284031215612b3857612b376125ea565b5b600082013567ffffffffffffffff811115612b5657612b556125ef565b5b612b6284828501612af4565b91505092915050565b600060208284031215612b8157612b806125ea565b5b6000612b8f84828501612837565b91505092915050565b612ba181612679565b8114612bac57600080fd5b50565b600081359050612bbe81612b98565b92915050565b60008060408385031215612bdb57612bda6125ea565b5b6000612be985828601612837565b9250506020612bfa85828601612baf565b9150509250929050565b600067ffffffffffffffff821115612c1f57612c1e6129f7565b5b612c28826126f5565b9050602081019050919050565b6000612c48612c4384612c04565b612a57565b905082815260208101848484011115612c6457612c636129f2565b5b612c6f848285612aa3565b509392505050565b600082601f830112612c8c57612c8b612940565b5b8135612c9c848260208601612c35565b91505092915050565b60008060008060808587031215612cbf57612cbe6125ea565b5b6000612ccd87828801612837565b9450506020612cde87828801612837565b9350506040612cef87828801612782565b925050606085013567ffffffffffffffff811115612d1057612d0f6125ef565b5b612d1c87828801612c77565b91505092959194509250565b600081519050919050565b600082825260208201905092915050565b6000819050602082019050919050565b612d5d81612761565b82525050565b600082825260208201905092915050565b6000612d7f826126af565b612d898185612d63565b9350612d998185602086016126cb565b612da2816126f5565b840191505092915050565b6000604083016000830151612dc56000860182612d54565b5060208301518482036020860152612ddd8282612d74565b9150508091505092915050565b6000612df68383612dad565b905092915050565b6000602082019050919050565b6000612e1682612d28565b612e208185612d33565b935083602082028501612e3285612d44565b8060005b85811015612e6e5784840389528151612e4f8582612dea565b9450612e5a83612dfe565b925060208a01995050600181019050612e36565b50829750879550505050505092915050565b60006020820190508181036000830152612e9a8184612e0b565b905092915050565b60008060408385031215612eb957612eb86125ea565b5b6000612ec785828601612837565b9250506020612ed885828601612837565b9150509250929050565b7f4e487b7100000000000000000000000000000000000000000000000000000000600052602260045260246000fd5b60006002820490506001821680612f2957607f821691505b602082108103612f3c57612f3b612ee2565b5b50919050565b7f4e487b7100000000000000000000000000000000000000000000000000000000600052601160045260246000fd5b6000612f7c82612761565b9150612f8783612761565b9250828203905081811115612f9f57612f9e612f42565b5b92915050565b6000606082019050612fba60008301866127f6565b612fc7602083018561288c565b612fd460408301846127f6565b949350505050565b7f596f7520616c72656164792068617665206120636f6d6d616e6465722e000000600082015250565b6000613012601d836126ba565b915061301d82612fdc565b602082019050919050565b6000602082019050818103600083015261304181613005565b9050919050565b60008190508160005260206000209050919050565b60006020601f8301049050919050565b600082821b905092915050565b6000600883026130aa7fffffffffffffffffffffffffffffffffffffffffffffffffffffffffffffffff8261306d565b6130b4868361306d565b95508019841693508086168417925050509392505050565b6000819050919050565b60006130f16130ec6130e784612761565b6130cc565b612761565b9050919050565b6000819050919050565b61310b836130d6565b61311f613117826130f8565b84845461307a565b825550505050565b600090565b613134613127565b61313f818484613102565b505050565b5b818110156131635761315860008261312c565b600181019050613145565b5050565b601f8211156131a85761317981613048565b6131828461305d565b81016020851015613191578190505b6131a561319d8561305d565b830182613144565b50505b505050565b600082821c905092915050565b60006131cb600019846008026131ad565b1980831691505092915050565b60006131e483836131ba565b9150826002028217905092915050565b6131fd826126af565b67ffffffffffffffff811115613216576132156129f7565b5b6132208254612f11565b61322b828285613167565b600060209050601f83116001811461325e576000841561324c578287015190505b61325685826131d8565b8655506132be565b601f19841661326c86613048565b60005b828110156132945784890151825560018201915060208501945060208101905061326f565b868310156132b157848901516132ad601f8916826131ba565b8355505b6001600288020188555050505b505050505050565b6000815190506132d58161276b565b92915050565b6000602082840312156132f1576132f06125ea565b5b60006132ff848285016132c6565b91505092915050565b60008151905061331781612b98565b92915050565b600060208284031215613333576133326125ea565b5b600061334184828501613308565b91505092915050565b600061335683856126ba565b9350613363838584612aa3565b61336c836126f5565b840190509392505050565b600060608201905061338c600083018761288c565b818103602083015261339f81858761334a565b905081810360408301526133b38184612706565b905095945050505050565b7f4e487b7100000000000000000000000000000000000000000000000000000000600052603260045260246000fd5b600082905092915050565b61340283836133ed565b67ffffffffffffffff81111561341b5761341a6129f7565b5b6134258254612f11565b613430828285613167565b6000601f83116001811461345f576000841561344d578287013590505b61345785826131d8565b8655506134bf565b601f19841661346d86613048565b60005b8281101561349557848901358255600182019150602085019450602081019050613470565b868310156134b257848901356134ae601f8916826131ba565b8355505b6001600288020188555050505b50505050505050565b7f43617420616d6f756e74207265616368206c696d697400000000000000000000600082015250565b60006134fe6016836126ba565b9150613509826134c8565b602082019050919050565b6000602082019050818103600083015261352d816134f1565b9050919050565b600081905092915050565b600061354a826126af565b6135548185613534565b93506135648185602086016126cb565b80840191505092915050565b600061357c828461353f565b915081905092915050565b7f446e6120616c72656164792045786973742e0000000000000000000000000000600082015250565b60006135bd6012836126ba565b91506135c882613587565b602082019050919050565b600060208201905081810360008301526135ec816135b0565b9050919050565b6000819050919050565b600061361861361361360e846135f3565b6130cc565b612761565b9050919050565b613628816135fd565b82525050565b6000604082019050613643600083018561361f565b61365060208301846127f6565b9392505050565b600060408201905061366c600083018561288c565b818103602083015261367e8184612706565b90509392505050565b6000815461369481612f11565b61369e8186613534565b945060018216600081146136b957600181146136ce57613701565b60ff1983168652811515820286019350613701565b6136d785613048565b60005b838110156136f9578154818901526001820191506020810190506136da565b838801955050505b50505092915050565b60006137168285613687565b91506137228284613687565b91508190509392505050565b600061373982612761565b91507fffffffffffffffffffffffffffffffffffffffffffffffffffffffffffffffff820361376b5761376a612f42565b5b600182019050919050565b7f4e487b7100000000000000000000000000000000000000000000000000000000600052601260045260246000fd5b600081519050919050565b600082825260208201905092915050565b60006137cc826137a5565b6137d681856137b0565b93506137e68185602086016126cb565b6137ef816126f5565b840191505092915050565b600060808201905061380f60008301876127f6565b61381c60208301866127f6565b613829604083018561288c565b818103606083015261383b81846137c1565b905095945050505050565b60008151905061385581612620565b92915050565b600060208284031215613871576138706125ea565b5b600061387f84828501613846565b91505092915050565b600060408201905061389d60008301856127f6565b6138aa602083018461288c565b939250505056fea2646970667358221220f4e8ccfe6a73974421c6fde6c61efe4e1a08f50649f21c61e74859e3c65acdbe64736f6c63430008140033",
  "linkReferences": {},
  "deployedLinkReferences": {}
}