{
  "_format": "hh-sol-artifact-1",
  "contractName": "RoboMarket",
  "sourceName": "contracts/RoboMarket.sol",
  "abi": [
    {
      "inputs": [
        {
          "internalType": "address",
          "name": "_robotNFTAddress",
          "type": "address"
        },
        {
          "internalType": "address",
          "name": "_roboBankAddress",
          "type": "address"
        }
      ],
      "stateMutability": "nonpayable",
      "type": "constructor"
    },
    {
      "inputs": [
        {
          "internalType": "uint256",
          "name": "robotId",
          "type": "uint256"
        }
      ],
      "name": "buyRobot",
      "outputs": [],
      "stateMutability": "nonpayable",
      "type": "function"
    },
    {
      "inputs": [
        {
          "internalType": "uint256",
          "name": "",
          "type": "uint256"
        }
      ],
      "name": "market",
      "outputs": [
        {
          "internalType": "uint256",
          "name": "robotId",
          "type": "uint256"
        },
        {
          "internalType": "uint256",
          "name": "price",
          "type": "uint256"
        }
      ],
      "stateMutability": "view",
      "type": "function"
    },
    {
      "inputs": [
        {
          "internalType": "address",
          "name": "operator",
          "type": "address"
        },
        {
          "internalType": "address",
          "name": "from",
          "type": "address"
        },
        {
          "internalType": "uint256",
          "name": "tokenId",
          "type": "uint256"
        },
        {
          "internalType": "bytes",
          "name": "data",
          "type": "bytes"
        }
      ],
      "name": "onERC721Received",
      "outputs": [
        {
          "internalType": "bytes4",
          "name": "",
          "type": "bytes4"
        }
      ],
      "stateMutability": "nonpayable",
      "type": "function"
    },
    {
      "inputs": [
        {
          "internalType": "uint256",
          "name": "",
          "type": "uint256"
        }
      ],
      "name": "robotIdToMarketId",
      "outputs": [
        {
          "internalType": "uint256",
          "name": "",
          "type": "uint256"
        }
      ],
      "stateMutability": "view",
      "type": "function"
    },
    {
      "inputs": [
        {
          "internalType": "uint256",
          "name": "",
          "type": "uint256"
        }
      ],
      "name": "robotIdToSalerAccount",
      "outputs": [
        {
          "internalType": "address",
          "name": "",
          "type": "address"
        }
      ],
      "stateMutability": "view",
      "type": "function"
    },
    {
      "inputs": [
        {
          "internalType": "uint256",
          "name": "_robotId",
          "type": "uint256"
        },
        {
          "internalType": "uint256",
          "name": "_price",
          "type": "uint256"
        }
      ],
      "name": "setPrice",
      "outputs": [],
      "stateMutability": "nonpayable",
      "type": "function"
    },
    {
      "inputs": [
        {
          "internalType": "uint256",
          "name": "robotId",
          "type": "uint256"
        }
      ],
      "name": "unsale",
      "outputs": [],
      "stateMutability": "nonpayable",
      "type": "function"
    }
  ],
  "bytecode": "0x60806040523480156200001157600080fd5b50604051620012923803806200129283398181016040528101906200003791906200016b565b816000806101000a81548173ffffffffffffffffffffffffffffffffffffffff021916908373ffffffffffffffffffffffffffffffffffffffff16021790555080600160006101000a81548173ffffffffffffffffffffffffffffffffffffffff021916908373ffffffffffffffffffffffffffffffffffffffff16021790555081600260006101000a81548173ffffffffffffffffffffffffffffffffffffffff021916908373ffffffffffffffffffffffffffffffffffffffff1602179055505050620001b2565b600080fd5b600073ffffffffffffffffffffffffffffffffffffffff82169050919050565b6000620001338262000106565b9050919050565b620001458162000126565b81146200015157600080fd5b50565b60008151905062000165816200013a565b92915050565b6000806040838503121562000185576200018462000101565b5b6000620001958582860162000154565b9250506020620001a88582860162000154565b9150509250929050565b6110d080620001c26000396000f3fe608060405234801561001057600080fd5b506004361061007d5760003560e01c8063b331ae571161005b578063b331ae5714610113578063df5324c61461012f578063e31ff91f1461014b578063f7d975771461017b5761007d565b8063150b7a021461008257806328861d22146100b25780639e0c9f8e146100e3575b600080fd5b61009c60048036038101906100979190610c19565b610197565b6040516100a99190610cdc565b60405180910390f35b6100cc60048036038101906100c79190610cf7565b610361565b6040516100da929190610d33565b60405180910390f35b6100fd60048036038101906100f89190610cf7565b610395565b60405161010a9190610d6b565b60405180910390f35b61012d60048036038101906101289190610cf7565b6103c8565b005b61014960048036038101906101449190610cf7565b6106f6565b005b61016560048036038101906101609190610cf7565b610a09565b6040516101729190610d86565b60405180910390f35b61019560048036038101906101909190610da1565b610a21565b005b60008073ffffffffffffffffffffffffffffffffffffffff168673ffffffffffffffffffffffffffffffffffffffff16036101d157600080fd5b600260009054906101000a900473ffffffffffffffffffffffffffffffffffffffff1673ffffffffffffffffffffffffffffffffffffffff163373ffffffffffffffffffffffffffffffffffffffff161461022b57600080fd5b6003604051806040016040528086815260200161028b86868080601f016020809104026020016040519081016040528093929190818152602001838380828437600081840152601f19601f82011690508083019250505050505050610b03565b815250908060018154018082558091505060019003906000526020600020906002020160009091909190915060008201518160000155602082015181600101555050600060016003805490506102e19190610e10565b9050806004600087815260200190815260200160002081905550856005600087815260200190815260200160002060006101000a81548173ffffffffffffffffffffffffffffffffffffffff021916908373ffffffffffffffffffffffffffffffffffffffff16021790555063150b7a0260e01b91505095945050505050565b6003818154811061037157600080fd5b90600052602060002090600202016000915090508060000154908060010154905082565b60056020528060005260406000206000915054906101000a900473ffffffffffffffffffffffffffffffffffffffff1681565b60006005600083815260200190815260200160002060009054906101000a900473ffffffffffffffffffffffffffffffffffffffff169050600073ffffffffffffffffffffffffffffffffffffffff168173ffffffffffffffffffffffffffffffffffffffff160361046f576040517f08c379a000000000000000000000000000000000000000000000000000000000815260040161046690610ea1565b60405180910390fd5b60006004600084815260200190815260200160002054905060006003828154811061049d5761049c610ec1565b5b9060005260206000209060020201600101549050600160009054906101000a900473ffffffffffffffffffffffffffffffffffffffff1673ffffffffffffffffffffffffffffffffffffffff16630f2050153385846040518463ffffffff1660e01b815260040161051093929190610ef0565b600060405180830381600087803b15801561052a57600080fd5b505af115801561053e573d6000803e3d6000fd5b505050506000600360016003805490506105589190610e10565b8154811061056957610568610ec1565b5b906000526020600020906002020160405180604001604052908160008201548152602001600182015481525050905080600384815481106105ad576105ac610ec1565b5b9060005260206000209060020201600082015181600001556020820151816001015590505060038054806105e4576105e3610f27565b5b600190038181906000526020600020906002020160008082016000905560018201600090555050905560006005600087815260200190815260200160002060006101000a81548173ffffffffffffffffffffffffffffffffffffffff021916908373ffffffffffffffffffffffffffffffffffffffff16021790555060008054906101000a900473ffffffffffffffffffffffffffffffffffffffff1673ffffffffffffffffffffffffffffffffffffffff166342842e0e3033886040518463ffffffff1660e01b81526004016106bd93929190610ef0565b600060405180830381600087803b1580156106d757600080fd5b505af11580156106eb573d6000803e3d6000fd5b505050505050505050565b60006005600083815260200190815260200160002060009054906101000a900473ffffffffffffffffffffffffffffffffffffffff169050600073ffffffffffffffffffffffffffffffffffffffff168173ffffffffffffffffffffffffffffffffffffffff160361079d576040517f08c379a000000000000000000000000000000000000000000000000000000000815260040161079490610fa2565b60405180910390fd5b6005600083815260200190815260200160002060009054906101000a900473ffffffffffffffffffffffffffffffffffffffff1673ffffffffffffffffffffffffffffffffffffffff163373ffffffffffffffffffffffffffffffffffffffff161461083e576040517f08c379a00000000000000000000000000000000000000000000000000000000081526004016108359061100e565b60405180910390fd5b60006004600084815260200190815260200160002054905060006003600160038054905061086c9190610e10565b8154811061087d5761087c610ec1565b5b906000526020600020906002020160405180604001604052908160008201548152602001600182015481525050905080600383815481106108c1576108c0610ec1565b5b9060005260206000209060020201600082015181600001556020820151816001015590505060038054806108f8576108f7610f27565b5b600190038181906000526020600020906002020160008082016000905560018201600090555050905560006005600086815260200190815260200160002060006101000a81548173ffffffffffffffffffffffffffffffffffffffff021916908373ffffffffffffffffffffffffffffffffffffffff16021790555060008054906101000a900473ffffffffffffffffffffffffffffffffffffffff1673ffffffffffffffffffffffffffffffffffffffff166342842e0e3085876040518463ffffffff1660e01b81526004016109d193929190610ef0565b600060405180830381600087803b1580156109eb57600080fd5b505af11580156109ff573d6000803e3d6000fd5b5050505050505050565b60046020528060005260406000206000915090505481565b3373ffffffffffffffffffffffffffffffffffffffff166005600084815260200190815260200160002060009054906101000a900473ffffffffffffffffffffffffffffffffffffffff1673ffffffffffffffffffffffffffffffffffffffff1614610ac2576040517f08c379a0000000000000000000000000000000000000000000000000000000008152600401610ab99061107a565b60405180910390fd5b806003600460008581526020019081526020016000205481548110610aea57610ae9610ec1565b5b9060005260206000209060020201600101819055505050565b6000806020830151905080915050919050565b600080fd5b600080fd5b600073ffffffffffffffffffffffffffffffffffffffff82169050919050565b6000610b4b82610b20565b9050919050565b610b5b81610b40565b8114610b6657600080fd5b50565b600081359050610b7881610b52565b92915050565b6000819050919050565b610b9181610b7e565b8114610b9c57600080fd5b50565b600081359050610bae81610b88565b92915050565b600080fd5b600080fd5b600080fd5b60008083601f840112610bd957610bd8610bb4565b5b8235905067ffffffffffffffff811115610bf657610bf5610bb9565b5b602083019150836001820283011115610c1257610c11610bbe565b5b9250929050565b600080600080600060808688031215610c3557610c34610b16565b5b6000610c4388828901610b69565b9550506020610c5488828901610b69565b9450506040610c6588828901610b9f565b935050606086013567ffffffffffffffff811115610c8657610c85610b1b565b5b610c9288828901610bc3565b92509250509295509295909350565b60007fffffffff0000000000000000000000000000000000000000000000000000000082169050919050565b610cd681610ca1565b82525050565b6000602082019050610cf16000830184610ccd565b92915050565b600060208284031215610d0d57610d0c610b16565b5b6000610d1b84828501610b9f565b91505092915050565b610d2d81610b7e565b82525050565b6000604082019050610d486000830185610d24565b610d556020830184610d24565b9392505050565b610d6581610b40565b82525050565b6000602082019050610d806000830184610d5c565b92915050565b6000602082019050610d9b6000830184610d24565b92915050565b60008060408385031215610db857610db7610b16565b5b6000610dc685828601610b9f565b9250506020610dd785828601610b9f565b9150509250929050565b7f4e487b7100000000000000000000000000000000000000000000000000000000600052601160045260246000fd5b6000610e1b82610b7e565b9150610e2683610b7e565b9250828203905081811115610e3e57610e3d610de1565b5b92915050565b600082825260208201905092915050565b7f4e6f7420696e2073616c65000000000000000000000000000000000000000000600082015250565b6000610e8b600b83610e44565b9150610e9682610e55565b602082019050919050565b60006020820190508181036000830152610eba81610e7e565b9050919050565b7f4e487b7100000000000000000000000000000000000000000000000000000000600052603260045260246000fd5b6000606082019050610f056000830186610d5c565b610f126020830185610d5c565b610f1f6040830184610d24565b949350505050565b7f4e487b7100000000000000000000000000000000000000000000000000000000600052603160045260246000fd5b7f526f626f74206973206e6f7420696e2073616c652e0000000000000000000000600082015250565b6000610f8c601583610e44565b9150610f9782610f56565b602082019050919050565b60006020820190508181036000830152610fbb81610f7f565b9050919050565b7f4e6f7420796f757220726f626f742e0000000000000000000000000000000000600082015250565b6000610ff8600f83610e44565b915061100382610fc2565b602082019050919050565b6000602082019050818103600083015261102781610feb565b9050919050565b7f4e6f7420796f757220726f626f74000000000000000000000000000000000000600082015250565b6000611064600e83610e44565b915061106f8261102e565b602082019050919050565b6000602082019050818103600083015261109381611057565b905091905056fea26469706673582212208ea1178c5ca48ff8c6af4c5edbe865abd8c32c514be661072a6ee763519572a964736f6c63430008140033",
  "linkReferences": {},
  "deployedLinkReferences": {}
}