{
  "_format": "hh-sol-artifact-1",
  "contractName": "RoboMarket",
  "sourceName": "contracts/RoboMarket.sol",
  "abi": [
    {
      "inputs": [
        {
          "internalType": "address",
          "name": "_robotNFTAddress",
          "type": "address"
        },
        {
          "internalType": "address",
          "name": "_roboBankAddress",
          "type": "address"
        }
      ],
      "stateMutability": "nonpayable",
      "type": "constructor"
    },
    {
      "inputs": [
        {
          "internalType": "uint256",
          "name": "robotId",
          "type": "uint256"
        }
      ],
      "name": "buyRobot",
      "outputs": [],
      "stateMutability": "nonpayable",
      "type": "function"
    },
    {
      "inputs": [
        {
          "internalType": "address",
          "name": "addr",
          "type": "address"
        }
      ],
      "name": "getMySale",
      "outputs": [
        {
          "components": [
            {
              "internalType": "uint256",
              "name": "robotId",
              "type": "uint256"
            },
            {
              "internalType": "uint256",
              "name": "price",
              "type": "uint256"
            }
          ],
          "internalType": "struct RoboMarket.SaleInfo[]",
          "name": "",
          "type": "tuple[]"
        }
      ],
      "stateMutability": "view",
      "type": "function"
    },
    {
      "inputs": [],
      "name": "getSaleCount",
      "outputs": [
        {
          "internalType": "uint256",
          "name": "",
          "type": "uint256"
        }
      ],
      "stateMutability": "view",
      "type": "function"
    },
    {
      "inputs": [
        {
          "internalType": "uint256",
          "name": "",
          "type": "uint256"
        }
      ],
      "name": "market",
      "outputs": [
        {
          "internalType": "uint256",
          "name": "robotId",
          "type": "uint256"
        },
        {
          "internalType": "uint256",
          "name": "price",
          "type": "uint256"
        }
      ],
      "stateMutability": "view",
      "type": "function"
    },
    {
      "inputs": [
        {
          "internalType": "address",
          "name": "operator",
          "type": "address"
        },
        {
          "internalType": "address",
          "name": "from",
          "type": "address"
        },
        {
          "internalType": "uint256",
          "name": "tokenId",
          "type": "uint256"
        },
        {
          "internalType": "bytes",
          "name": "data",
          "type": "bytes"
        }
      ],
      "name": "onERC721Received",
      "outputs": [
        {
          "internalType": "bytes4",
          "name": "",
          "type": "bytes4"
        }
      ],
      "stateMutability": "nonpayable",
      "type": "function"
    },
    {
      "inputs": [
        {
          "internalType": "uint256",
          "name": "",
          "type": "uint256"
        }
      ],
      "name": "robotIdToMarketId",
      "outputs": [
        {
          "internalType": "uint256",
          "name": "",
          "type": "uint256"
        }
      ],
      "stateMutability": "view",
      "type": "function"
    },
    {
      "inputs": [
        {
          "internalType": "uint256",
          "name": "",
          "type": "uint256"
        }
      ],
      "name": "robotIdToSalerAccount",
      "outputs": [
        {
          "internalType": "address",
          "name": "",
          "type": "address"
        }
      ],
      "stateMutability": "view",
      "type": "function"
    },
    {
      "inputs": [
        {
          "internalType": "uint256",
          "name": "_robotId",
          "type": "uint256"
        },
        {
          "internalType": "uint256",
          "name": "_price",
          "type": "uint256"
        }
      ],
      "name": "setPrice",
      "outputs": [],
      "stateMutability": "nonpayable",
      "type": "function"
    },
    {
      "inputs": [
        {
          "internalType": "uint256",
          "name": "robotId",
          "type": "uint256"
        }
      ],
      "name": "unsale",
      "outputs": [],
      "stateMutability": "nonpayable",
      "type": "function"
    }
  ],
  "bytecode": "0x60806040523480156200001157600080fd5b506040516200163c3803806200163c83398181016040528101906200003791906200016b565b816000806101000a81548173ffffffffffffffffffffffffffffffffffffffff021916908373ffffffffffffffffffffffffffffffffffffffff16021790555080600160006101000a81548173ffffffffffffffffffffffffffffffffffffffff021916908373ffffffffffffffffffffffffffffffffffffffff16021790555081600260006101000a81548173ffffffffffffffffffffffffffffffffffffffff021916908373ffffffffffffffffffffffffffffffffffffffff1602179055505050620001b2565b600080fd5b600073ffffffffffffffffffffffffffffffffffffffff82169050919050565b6000620001338262000106565b9050919050565b620001458162000126565b81146200015157600080fd5b50565b60008151905062000165816200013a565b92915050565b6000806040838503121562000185576200018462000101565b5b6000620001958582860162000154565b9250506020620001a88582860162000154565b9150509250929050565b61147a80620001c26000396000f3fe608060405234801561001057600080fd5b50600436106100935760003560e01c8063b331ae5711610066578063b331ae5714610159578063c24521c614610175578063df5324c614610193578063e31ff91f146101af578063f7d97577146101df57610093565b8063150b7a021461009857806328861d22146100c857806359620072146100f95780639e0c9f8e14610129575b600080fd5b6100b260048036038101906100ad9190610e3f565b6101fb565b6040516100bf9190610f02565b60405180910390f35b6100e260048036038101906100dd9190610f1d565b6103c5565b6040516100f0929190610f59565b60405180910390f35b610113600480360381019061010e9190610f82565b6103f9565b604051610120919061109c565b60405180910390f35b610143600480360381019061013e9190610f1d565b610524565b60405161015091906110cd565b60405180910390f35b610173600480360381019061016e9190610f1d565b610557565b005b61017d6108ca565b60405161018a91906110e8565b60405180910390f35b6101ad60048036038101906101a89190610f1d565b6108d7565b005b6101c960048036038101906101c49190610f1d565b610c2f565b6040516101d691906110e8565b60405180910390f35b6101f960048036038101906101f49190611103565b610c47565b005b60008073ffffffffffffffffffffffffffffffffffffffff168673ffffffffffffffffffffffffffffffffffffffff160361023557600080fd5b600260009054906101000a900473ffffffffffffffffffffffffffffffffffffffff1673ffffffffffffffffffffffffffffffffffffffff163373ffffffffffffffffffffffffffffffffffffffff161461028f57600080fd5b600360405180604001604052808681526020016102ef86868080601f016020809104026020016040519081016040528093929190818152602001838380828437600081840152601f19601f82011690508083019250505050505050610d29565b815250908060018154018082558091505060019003906000526020600020906002020160009091909190915060008201518160000155602082015181600101555050600060016003805490506103459190611172565b9050806004600087815260200190815260200160002081905550856005600087815260200190815260200160002060006101000a81548173ffffffffffffffffffffffffffffffffffffffff021916908373ffffffffffffffffffffffffffffffffffffffff16021790555063150b7a0260e01b91505095945050505050565b600381815481106103d557600080fd5b90600052602060002090600202016000915090508060000154908060010154905082565b6060806000805b600380549050811015610519578473ffffffffffffffffffffffffffffffffffffffff16600560006003848154811061043c5761043b6111a6565b5b906000526020600020906002020160000154815260200190815260200160002060009054906101000a900473ffffffffffffffffffffffffffffffffffffffff1673ffffffffffffffffffffffffffffffffffffffff160361050657600381815481106104ac576104ab6111a6565b5b9060005260206000209060020201604051806040016040529081600082015481526020016001820154815250508383815181106104ec576104eb6111a6565b5b60200260200101819052508180610502906111d5565b9250505b8080610511906111d5565b915050610400565b508192505050919050565b60056020528060005260406000206000915054906101000a900473ffffffffffffffffffffffffffffffffffffffff1681565b60006005600083815260200190815260200160002060009054906101000a900473ffffffffffffffffffffffffffffffffffffffff169050600073ffffffffffffffffffffffffffffffffffffffff168173ffffffffffffffffffffffffffffffffffffffff16036105fe576040517f08c379a00000000000000000000000000000000000000000000000000000000081526004016105f59061127a565b60405180910390fd5b60006004600084815260200190815260200160002054905060006003828154811061062c5761062b6111a6565b5b9060005260206000209060020201600101549050600160009054906101000a900473ffffffffffffffffffffffffffffffffffffffff1673ffffffffffffffffffffffffffffffffffffffff16630f2050153385846040518463ffffffff1660e01b815260040161069f9392919061129a565b600060405180830381600087803b1580156106b957600080fd5b505af11580156106cd573d6000803e3d6000fd5b505050506000600360016003805490506106e79190611172565b815481106106f8576106f76111a6565b5b9060005260206000209060020201604051806040016040529081600082015481526020016001820154815250509050806003848154811061073c5761073b6111a6565b5b9060005260206000209060020201600082015181600001556020820151816001015590505082600460008360000151815260200190815260200160002081905550600160038054905061078f9190611172565b600460008781526020019081526020016000208190555060038054806107b8576107b76112d1565b5b600190038181906000526020600020906002020160008082016000905560018201600090555050905560006005600087815260200190815260200160002060006101000a81548173ffffffffffffffffffffffffffffffffffffffff021916908373ffffffffffffffffffffffffffffffffffffffff16021790555060008054906101000a900473ffffffffffffffffffffffffffffffffffffffff1673ffffffffffffffffffffffffffffffffffffffff166342842e0e3033886040518463ffffffff1660e01b81526004016108919392919061129a565b600060405180830381600087803b1580156108ab57600080fd5b505af11580156108bf573d6000803e3d6000fd5b505050505050505050565b6000600380549050905090565b60006005600083815260200190815260200160002060009054906101000a900473ffffffffffffffffffffffffffffffffffffffff169050600073ffffffffffffffffffffffffffffffffffffffff168173ffffffffffffffffffffffffffffffffffffffff160361097e576040517f08c379a00000000000000000000000000000000000000000000000000000000081526004016109759061134c565b60405180910390fd5b6005600083815260200190815260200160002060009054906101000a900473ffffffffffffffffffffffffffffffffffffffff1673ffffffffffffffffffffffffffffffffffffffff163373ffffffffffffffffffffffffffffffffffffffff1614610a1f576040517f08c379a0000000000000000000000000000000000000000000000000000000008152600401610a16906113b8565b60405180910390fd5b600060046000848152602001908152602001600020549050600060036001600380549050610a4d9190611172565b81548110610a5e57610a5d6111a6565b5b90600052602060002090600202016040518060400160405290816000820154815260200160018201548152505090508060038381548110610aa257610aa16111a6565b5b90600052602060002090600202016000820151816000015560208201518160010155905050816004600083600001518152602001908152602001600020819055506001600380549050610af59190611172565b60046000868152602001908152602001600020819055506003805480610b1e57610b1d6112d1565b5b600190038181906000526020600020906002020160008082016000905560018201600090555050905560006005600086815260200190815260200160002060006101000a81548173ffffffffffffffffffffffffffffffffffffffff021916908373ffffffffffffffffffffffffffffffffffffffff16021790555060008054906101000a900473ffffffffffffffffffffffffffffffffffffffff1673ffffffffffffffffffffffffffffffffffffffff166342842e0e3085876040518463ffffffff1660e01b8152600401610bf79392919061129a565b600060405180830381600087803b158015610c1157600080fd5b505af1158015610c25573d6000803e3d6000fd5b5050505050505050565b60046020528060005260406000206000915090505481565b3373ffffffffffffffffffffffffffffffffffffffff166005600084815260200190815260200160002060009054906101000a900473ffffffffffffffffffffffffffffffffffffffff1673ffffffffffffffffffffffffffffffffffffffff1614610ce8576040517f08c379a0000000000000000000000000000000000000000000000000000000008152600401610cdf90611424565b60405180910390fd5b806003600460008581526020019081526020016000205481548110610d1057610d0f6111a6565b5b9060005260206000209060020201600101819055505050565b6000806020830151905080915050919050565b600080fd5b600080fd5b600073ffffffffffffffffffffffffffffffffffffffff82169050919050565b6000610d7182610d46565b9050919050565b610d8181610d66565b8114610d8c57600080fd5b50565b600081359050610d9e81610d78565b92915050565b6000819050919050565b610db781610da4565b8114610dc257600080fd5b50565b600081359050610dd481610dae565b92915050565b600080fd5b600080fd5b600080fd5b60008083601f840112610dff57610dfe610dda565b5b8235905067ffffffffffffffff811115610e1c57610e1b610ddf565b5b602083019150836001820283011115610e3857610e37610de4565b5b9250929050565b600080600080600060808688031215610e5b57610e5a610d3c565b5b6000610e6988828901610d8f565b9550506020610e7a88828901610d8f565b9450506040610e8b88828901610dc5565b935050606086013567ffffffffffffffff811115610eac57610eab610d41565b5b610eb888828901610de9565b92509250509295509295909350565b60007fffffffff0000000000000000000000000000000000000000000000000000000082169050919050565b610efc81610ec7565b82525050565b6000602082019050610f176000830184610ef3565b92915050565b600060208284031215610f3357610f32610d3c565b5b6000610f4184828501610dc5565b91505092915050565b610f5381610da4565b82525050565b6000604082019050610f6e6000830185610f4a565b610f7b6020830184610f4a565b9392505050565b600060208284031215610f9857610f97610d3c565b5b6000610fa684828501610d8f565b91505092915050565b600081519050919050565b600082825260208201905092915050565b6000819050602082019050919050565b610fe481610da4565b82525050565b6040820160008201516110006000850182610fdb565b5060208201516110136020850182610fdb565b50505050565b60006110258383610fea565b60408301905092915050565b6000602082019050919050565b600061104982610faf565b6110538185610fba565b935061105e83610fcb565b8060005b8381101561108f5781516110768882611019565b975061108183611031565b925050600181019050611062565b5085935050505092915050565b600060208201905081810360008301526110b6818461103e565b905092915050565b6110c781610d66565b82525050565b60006020820190506110e260008301846110be565b92915050565b60006020820190506110fd6000830184610f4a565b92915050565b6000806040838503121561111a57611119610d3c565b5b600061112885828601610dc5565b925050602061113985828601610dc5565b9150509250929050565b7f4e487b7100000000000000000000000000000000000000000000000000000000600052601160045260246000fd5b600061117d82610da4565b915061118883610da4565b92508282039050818111156111a05761119f611143565b5b92915050565b7f4e487b7100000000000000000000000000000000000000000000000000000000600052603260045260246000fd5b60006111e082610da4565b91507fffffffffffffffffffffffffffffffffffffffffffffffffffffffffffffffff820361121257611211611143565b5b600182019050919050565b600082825260208201905092915050565b7f4e6f7420696e2073616c65000000000000000000000000000000000000000000600082015250565b6000611264600b8361121d565b915061126f8261122e565b602082019050919050565b6000602082019050818103600083015261129381611257565b9050919050565b60006060820190506112af60008301866110be565b6112bc60208301856110be565b6112c96040830184610f4a565b949350505050565b7f4e487b7100000000000000000000000000000000000000000000000000000000600052603160045260246000fd5b7f526f626f74206973206e6f7420696e2073616c652e0000000000000000000000600082015250565b600061133660158361121d565b915061134182611300565b602082019050919050565b6000602082019050818103600083015261136581611329565b9050919050565b7f4e6f7420796f757220726f626f742e0000000000000000000000000000000000600082015250565b60006113a2600f8361121d565b91506113ad8261136c565b602082019050919050565b600060208201905081810360008301526113d181611395565b9050919050565b7f4e6f7420796f757220726f626f74000000000000000000000000000000000000600082015250565b600061140e600e8361121d565b9150611419826113d8565b602082019050919050565b6000602082019050818103600083015261143d81611401565b905091905056fea264697066735822122003ad4d80c02825471fbc3d1092550602a4790a1cbe7de2c5409b3b3a2c81ae9564736f6c63430008140033",
  "linkReferences": {},
  "deployedLinkReferences": {}
}